:020000040000FA
:0600000006EF00F0000015
:0800080055EF00F017EEFFF0C8
:1000100027EEFFF0F86AA68EA69C720EF66E010E11
:10002000F76E000EF86E0900F5CF05F00900F5CF68
:1000300006F034D00900F5CF00F00900F5CF01F04B
:100040000900F5CF02F009000900F5CFE9FF09002A
:10005000F5CFEAFF090009000900F5CF03F0090018
:10006000F5CF04F009000900F6CF07F0F7CF08F04C
:10007000F8CF09F000C0F6FF01C0F7FF02C0F8FF9B
:1000800003D00900F5CFEEFF0306FBE20406F9E218
:1000900007C0F6FF08C0F7FF09C0F8FF0506CAE26F
:1000A0000606C8E29AEC00F0FFD7D8CFE5FFE0CF14
:1000B000E5FFE56EF3CFE5FFF4CFE5FFE9CFE5FF20
:1000C000EACFE5FFFACFE5FFFBCFE5FFD9CFE5FFAC
:1000D000E1CFD9FF00C0E5FFF2A416D0F2940F01E2
:1000E00000510AE1010E0F01006F81868150006E00
:1000F000FB0E0014816E08D08150006EF70E0014C4
:10010000816E81840F01006BE4CF00F0E4CFD9FF52
:10011000E4CFFBFFE4CFFAFFE4CFEAFFE4CFE9FF4F
:10012000E4CFF4FFE4CFF3FFE450E4CFE0FFE4CF0B
:10013000D8FF1000D59AD596D594D582D580F26A8D
:10014000F28EF28AD66A9350006EF70E0014936E08
:100150009350006EFB0E0014936E8150006EF70EEC
:100160000014816E8150006EFB0E0014816EFFD76B
:100170001200010004000000000F00000200000057
:020000040030CA
:0E000000FF38FFFEFFFBBBFFFFFFFFFFFFFF10
:00000001FF
