:040000007FEF09F095
:10100000000D0A0D0A50494331384634364B323010
:1010100020706C6174666F726D0D0A004C41544211
:0F102000202025730D0A00286E756C6C290000C6
:101030000D0E106E000E116E5BD0250E1218D8B476
:1010400004D012506EEC09F053D0000E0F6E3FD05A
:1010500010C0D9FF11C0DAFFDECF13F0DDCF14F0DE
:10106000020E1026000E112213501410D8A41AD00C
:10107000270E136E100E146E15D013C0F6FF14C099
:10108000F7FF000EF86E0F0EF76403D00800F5505E
:1010900005D0F6CFD9FFF7CFDAFFDF506EEC09F0BD
:1010A000134A142A13C0F6FF14C0F7FF000EF86E9F
:1010B0000F0EF76403D00800F55005D0F6CFD9FF26
:1010C000F7CFDAFFDF500009D8B412D0D6D70BC063
:1010D000F6FF0CC0F7FF0B4A0C2AF86A0800F5CFA0
:1010E00012F01250000AD8B41200730AD8B4B0D764
:1010F0000BC0F6FF0CC0F7FF0B4A0C2AF86A080079
:10110000F5CF12F01250D8B4120097D77AEC09F04C
:10111000000E026E190E016E340E1DEC09F0AB8844
:10112000948C948E010E026E100E036E4DEC09F03D
:101130009390939293948A0E166E0F0E176E060E6E
:101140008A6E000E196E000E186E880E185C130E53
:101150001958D8B003D0184A192AF7D716C0D9FFA2
:1011600017C0DAFFDF2A000E196E000E186E880E07
:10117000185C130E1958D8B003D0184A192AF7D79B
:1011800016C0D9FF17C0DAFF070EDE18D8A407D0A3
:1011900016C0D9FF17C0DAFF000EDF6E06D08A0E28
:1011A000016E0F0E026E74EC09F01C0E0B6E100E29
:1011B0000C6E8A50E3EC08F001C00DF002C00EF096
:1011C00018EC08F0D0D7056E010E086E000E236EE5
:1011D000000E0A6E000E096E0ABE06D00A5026E105
:1011E000080E095CD8B022D009C003F008C004F092
:1011F000032A02D0D8900436032EFCD704500514DD
:101200000009D8A404D0000E076E300E03D0000EE3
:10121000076E310E066E1B0E0924D96E000E0A20D1
:10122000DA6E06C0DFFF094A0A2AD6D7000E236EFF
:101230001B0E016E000E026E1200036E000EAC6EED
:10124000000EAB6E03B0AC8803A202D0AC8CAB8CAA
:1012500003B4AC8E03A602D0AB8801D0AB8A03B82E
:10126000AC849E9803BAAB8603AC02D09D8A01D0B1
:101270009D9A9E9A03AE02D09D8801D09D9801C090
:10128000AFFF0250B06EAC8AAB8E949C948EACA82B
:101290001200ACBE1200948C1200ACA2FED702C0A9
:1012A000F6FF03C0F7FFF86A0800F55065EC09F097
:1012B00002C0F6FF03C0F7FF024A032AF86A0800DB
:1012C000F5500009D8B41200E8D7016EACAC03D0D9
:1012D000AC901AB2AC8001C0ADFF1200016E9EA8A6
:1012E000FED701C0ADFF120001C0D9FF02C0DAFF76
:1012F000DF2A1200DA0ED36E800E9B6E1200000100
:0413000086EF08F07C
:020000040030CA
:0E000000FF09011EFF8981FF0FC00FE00F40B6
:00000001FF
