:04000000AEEF7FF0F0
:10FF5C000001B1EF7FF0000E026E000E016E0F0E6D
:10FF6C00C16E000E7E6E000E7F6E070E926E0C0E32
:10FF7C00BD6EF90E946E070ECA6EF90ECB6E01C0F3
:10FF8C00BEFF80A080B202D080A4FBD780A011D08D
:10FF9C00750E015C000E0258D8A005D0000E026E42
:10FFAC007D0E016E06D0080E0124016E000E02209B
:10FFBC00026E80A211D0090E015C000E0258D8B05E
:10FFCC0005D0000E026E000E016E06D0F80E012454
:10FFDC00016EFF0E0220026E80A404D0000E026E91
:10FFEC00000E016E01C0BEFF80A080B2FDD780A4C0
:04FFFC00C8D7FAD791
:020000040030CA
:0E000000FF02011EFF8981FF0FC00FE00F40BD
:00000001FF
