:04000000A7EF7FF0F7
:10FF4E000001AAEF7FF0000E026E0C0E016E0F0E76
:10FF5E00C16E000E7E6E000E7F6E070E926ED39CEB
:10FF6E00D38AD398D3820C0EBD6EF90E946E860E84
:10FF7E00CA6E9B0ECB6E0C0EBA6E949201C0BEFF73
:10FF8E0080A080B202D080A4FBD780A011D0100E2A
:10FF9E00015C000E0258D8A005D0000E026E100EA5
:10FFAE00016E06D0010E0124016E000E0220026EBB
:10FFBE0080A211D0090E015C000E0258D8B005D0F7
:10FFCE00000E026E080E016E06D0FF0E0124016EA9
:10FFDE00FF0E0220026E80A404D0000E026E0C0EE4
:10FFEE00016E01C0BEFF80A080B2FDD780A4C8D72D
:02FFFE00FAD730
:020000040030CA
:0E000000FF09011EFF8981FF0FC00FE00F40B6
:00000001FF
