:0400000045EF00F0D8
:10000800FACF0EF0FBCF0FF0E9CF10F0EACF11F0E6
:10001800E1CF12F0E2CF13F0D9CF14F0DACF15F018
:10002800F3CF16F0F4CF17F0F6CF18F0F7CF19F09A
:10003800F8CF1AF0F5CF1BF0F2A401D001D004D00C
:10004800F294020E811A00D01BC0F5FF1AC0F8FF07
:1000580019C0F7FF18C0F6FF17C0F4FF16C0F3FF6A
:1000680015C0DAFF14C0D9FF13C0E2FF12C0E1FFC8
:1000780011C0EAFF10C0E9FF0FC0FBFF0EC0FAFF76
:060088001100EAEF7FF019
:10FFD4000001EDEF7FF0D59AD596D584D582D580F2
:10FFE400000EF26EF28EF28A000ED76E000ED66EFE
:0CFFF400939293948184FFD745EF00F0B6
:020000040030CA
:0600010002011E008981CE
:060008000FC00FE00F40E5
:00000001FF
