:0400000034EF09F0E0
:10100000004A75616E2079204D616E75200046752D
:101010006E63696F6E612E2E2E000000036E0F0E40
:101020008316F00E95129690969296948D908D92CE
:101030008D9445EC09F00F0E95160F0E8316838ADA
:101040008D8449EC09F08D9441EC09F00F0E831664
:10105000838A8D8449EC09F08D9441EC09F00F0EE0
:101060008316838A8D8449EC09F08D94F00E9512D5
:101070003BEC09F00009D8A4FBD70350E0EC08F0E2
:101080003BEC09F00009D8A4FBD7080EE0EC08F00F
:101090003BEC09F00009D8A4FBD70F0EE0EC08F0F8
:1010A0003BEC09F00009D8A4FBD7010EE0EC08F0F6
:1010B0003BEC09F00009D8A4FBD7040EE0EC08F0E3
:1010C0003BEC09F00009D8A4FBD7000EA1EC08F016
:1010D00012000F0EC16E000E7E6E000E7F6E070EA8
:1010E000926E000E956E0A0E24EC09F00A0E24ECA6
:1010F00009F0280E0EEC08F0010EE0EC08F0100EDE
:10110000046E010E036EFFEC08F00A0E24EC09F0E9
:101110000D0EE0EC08F0C00EE0EC08F0100E046ECE
:101120000E0E036EFFEC08F0F40E19EC09F00E0E33
:10113000E0EC08F0640E19EC09F00C0EE0EC08F09D
:10114000FFD7026E0F0E95160F0E83160250800900
:10115000F00B83128D908D9249EC09F08D8449EC4F
:1011600009F08D940F0E83160238F00BF00B8312EA
:1011700049EC09F08D8449EC09F08D94F00E95123C
:101180001200026E0F0E95160F0E83160250F00B12
:1011900083128D828D9049EC09F08D8449EC09F021
:1011A0008D940F0E83160238F00BF00B831249EC6E
:1011B00009F08D8449EC09F08D94F00E951212001F
:1011C000026E0F0E95160F0E83160250F00B83124F
:1011D0008D908D9249EC09F08D8449EC09F08D9445
:1011E0000F0E83160238F00BF00B831249EC09F056
:1011F0008D8449EC09F08D94F00E951212000FD0F9
:101200003BEC09F00009D8A4FBD703C0F6FF04C0EB
:10121000F7FF0800F550C1EC08F0034A042A03C0A8
:10122000F6FF04C0F7FF0800F5500009D8B412001B
:10123000E7D7026E0D0E016EFC0EE82EFED7012ED2
:10124000FCD7022EF7D71200016EFA0E00F0E82E3E
:10125000FDD7012EFAD71200016E210EE82EFED71F
:1012600000F0012EFAD71200000EF86E100EF76E85
:10127000000169EF08F049EC09F049EC09F0000EB3
:1012800012000A0E24EC09F012001E0E24EC09F0E4
:0A1290001200140E2CEC09F01200FD
:020000040030CA
:0E000000FF02011EFF8981FF0FC00FE00F40BD
:00000001FF
