:020000040000FA
:1000000002EF00F017EEFFF027EEFFF0F86AA68E81
:10001000A69C120EF66E010EF76E000EF86E090029
:10002000F5CF05F00900F5CF06F034D00900F5CF83
:1000300000F00900F5CF01F00900F5CF02F009004A
:100040000900F5CFE9FF0900F5CFEAFF0900090033
:100050000900F5CF03F00900F5CF04F0090009000D
:10006000F6CF07F0F7CF08F0F8CF09F000C0F6FFA1
:1000700001C0F7FF02C0F8FF03D00900F5CFEEFF83
:100080000306FBE20406F9E207C0F6FF08C0F7FF2B
:1000900009C0F8FF0506CAE20606C8E251EC00F006
:1000A000FFD79350006EFD0E0014936E9350006EB8
:1000B000FB0E0014936E818481820F01016BA20EEE
:1000C0000F01026F74EC00F081840F01016BA20E2E
:1000D0000F01026F74EC00F08150006EFB0E0014F3
:1000E000816E8172EAD71200D9CFE5FFE1CFD9FF47
:1000F0000F010000BF0E006F0000002F7CEF00F02A
:10010000012F7AEF00F0022F83EF00F0E4CFD9FF48
:100110001200010020010000030F00000100000098
:020120000000DD
:020000040030CA
:0E000000FF38FFFEFFFBBBFFFFFFFFFFFFFF10
:00000001FF
