:020000040000FA
:1000000000008A110A1204286730FE000130FF0048
:1000100080308A110A1210218A110A1283120313E6
:10002000B5007F08B4006930B6000130B700831214
:1000300003133408B8003508B900FF30B407031CB7
:10004000B5033808390403199C2804303607B80072
:10005000B901B90D3708B9073808FE003908FF00A3
:1000600080308A110A1210218A110A128312031396
:10007000BB007F08BA003608FE003708FF0080305A
:100080008A110A1210218A110A1283120313BD0069
:10009000B9007F08BC00B80002303607B800B901CB
:1000A000B90D3708B9073808FE003908FF0080305D
:1000B0008A110A1210218A110A1283120313B9003D
:1000C000BF007F08B800BE00831203133A08BE00C9
:1000D0003B08BF00FF30BA07031CBB033E083F04C8
:1000E000031995283C08FE003D08FF0080308A1166
:1000F0000A12FD208A110A1283120313BE00380867
:100100008312031384008313831203133918831794
:100110003E0883120313800083120313BC0A0319E1
:10012000BD0AB80A0319B90A6428063083120313FA
:10013000B6070318B70A17288A110A12A028080060
:10014000831603138601831203134D0883120313CE
:10015000C40083120313CD0A0230FF00831203137D
:1001600044088A110A1231218A110A1283120313D8
:10017000C500203EC40000300318013EC6004408FC
:100180008312031384008313831203134618831707
:1001900083120313000883120313C5008312031391
:1001A000840A000883120313450883120313860090
:1001B000F430FF000130E920803083120313860001
:1001C000831203134D080A3A031DA328CD01A32867
:1001D000080083120313C1007F08C00083120313B9
:1001E0004008C2004108C300FF30C007031CC10320
:1001F00042084304031DEE280800003A03190429AD
:10020000803A03190B2900347E08840083137F1879
:100210008317000808007F088A007E088200080013
:10022000003A03191829803A03192229FF010034E2
:100230007E08840083137F1883170008FF00840A58
:10024000000808008A110A120B21FD00FE0FFF03AF
:10025000FF0A8A110A120B21FC007D08FF007C08AE
:10026000080083120313C7007F08C800C9010830C3
:10027000CA0083120313471C3F294808C907831289
:1002800003134708CB0003104B0CCC00C70003102E
:10029000480DCC00C8004A03CC00CA004A08031D20
:1002A000392949080800063400345B3400344F34DF
:1002B0000034663400346D3400347D340034073447
:1002C00000347F340034673400343F340034033466
:1002D00000345334013420340034143400347B347B
:1002E00001344D340034013400347C3401344E3454
:0A02F00000340134003400340034FF
:02400E00FF3F72
:00000001FF
