:020000040000FA
:1000000000008A110A122428F200030E8301F10075
:100010000A088A01F000040883120313AD0083125A
:1000200003130B1D16280B110230860683120313CF
:100030002D0883120313840070088A008301710E57
:100040008300F20E720E09001A30FE000130FF002C
:1000500080308A110A12D3208A110A1283120313E4
:10006000A1007F08A0001C30A2000130A300831271
:1000700003132008A4002108A500FF30A007031CDB
:10008000A103240825040319BC2804302207A40076
:10009000A501A50D2308A5072408FE002508FF00DB
:1000A00080308A110A12D3208A110A128312031394
:1000B000A7007F08A6002208FE002308FF0080306A
:1000C0008A110A12D3208A110A1283120313A9007B
:1000D000A5007F08A800A40002302207A400A50103
:1000E000A50D2308A5072408FE002508FF00803081
:1000F0008A110A12D3208A110A1283120313A5004F
:10010000AB007F08A400AA00831203132608AA00EC
:100110002708AB00FF30A607031CA7032A082B04FF
:100120000319B5282808FE002908FF0080308A112D
:100130000A12C0208A110A1283120313AA0024088B
:100140008312031384008313831203132518831768
:100150002A0883120313800083120313A80A0319C9
:10016000A90AA40A0319A50A8428063083120313D6
:10017000A2070318A30A37288A110A12F4280800D4
:10018000003A0319C728803A0319CE2800347E08A4
:10019000840083137F188317000808007F088A00F3
:1001A0007E0882000800003A0319DB28803A031910
:1001B000E528FF0100347E08840083137F1883172D
:1001C0000008FF00840A000808008A110A12CE20E5
:1001D000FD00FE0FFF03FF0A8A110A12CE20FC0069
:1001E0007D08FF007C08080083160313811281112B
:1001F000011181100114831203138B018B178B16CD
:10020000810183160313060883120313AC00AC109C
:100210002C08831603138600060883120313AC0010
:100220002C112C0883160313860083120313061562
:100230001829080001340034223401342E340034EB
:060240000134003400341B
:02400E00FB3F76
:00000001FF
