:020000040000FA
:1000000000008A110A1204280D30FE000130FF00A2
:1000100080308A110A12EC208A110A12831203130B
:10002000A1007F08A0000F30A2000130A3008312BE
:1000300003132008A4002108A500FF30A007031C1B
:10004000A1032408250403199C2804302207A400D6
:10005000A501A50D2308A5072408FE002508FF001B
:1000600080308A110A12EC208A110A1283120313BB
:10007000A7007F08A6002208FE002308FF008030AA
:100080008A110A12EC208A110A1283120313A900A2
:10009000A5007F08A800A40002302207A400A50143
:1000A000A50D2308A5072408FE002508FF008030C1
:1000B0008A110A12EC208A110A1283120313A50076
:1000C000AB007F08A400AA00831203132608AA002D
:1000D0002708AB00FF30A607031CA7032A082B0440
:1000E000031995282808FE002908FF0080308A118E
:1000F0000A12D9208A110A1283120313AA002408B3
:1001000083120313840083138312031325188317A8
:100110002A0883120313800083120313A80A031909
:10012000A90AA40A0319A50A642806308312031336
:10013000A2070318A30A17288A110A12A028080088
:1001400083160313010883120313AC00AC132C08AD
:100150008316031381000614060883120313AC00F0
:10016000AC102C08831603138600831203130608B1
:1001700083120313AC00AC102C0883120313860007
:1001800083120313060883120313AC002C1CD4281B
:1001900083120313060883120313AC00AC102C085F
:1001A000831203138600C028831203138614C02809
:1001B0000800003A0319E028803A0319E7280034C0
:1001C0007E08840083137F188317000808007F08C7
:1001D0008A007E0882000800003A0319F428803A59
:1001E0000319FE28FF0100347E08840083137F1862
:1001F00083170008FF00840A000808008A110A1209
:10020000E720FD00FE0FFF03FF0A8A110A12E72014
:10021000FC007D08FF007C08080001340034153420
:0C02200001342D3400340134003400346B
:02400E00FF3F72
:00000001FF
