:020000040000FA
:1000000000008A110A1204288330FE000130FF002C
:1000100080308A110A1240218A110A1283120313B6
:10002000A1007F08A0008530A2000130A300831248
:1000300003132008A4002108A500FF30A007031C1B
:10004000A1032408250403199C2804302207A400D6
:10005000A501A50D2308A5072408FE002508FF001B
:1000600080308A110A1240218A110A128312031366
:10007000A7007F08A6002208FE002308FF008030AA
:100080008A110A1240218A110A1283120313A9004D
:10009000A5007F08A800A40002302207A400A50143
:1000A000A50D2308A5072408FE002508FF008030C1
:1000B0008A110A1240218A110A1283120313A50021
:1000C000AB007F08A400AA00831203132608AA002D
:1000D0002708AB00FF30A607031CA7032A082B0440
:1000E000031995282808FE002908FF0080308A118E
:1000F0000A122D218A110A1283120313AA0024085E
:1001000083120313840083138312031325188317A8
:100110002A0883120313800083120313A80A031909
:10012000A90AA40A0319A50A642806308312031336
:10013000A2070318A30A17288A110A12A028080088
:1001400083160313060883120313B400FD3034052D
:10015000831603138600060883120313B400FB30D2
:1001600034058316031386008312031386147D302F
:1001700083120313BA006430BB00DA200130FD00A3
:100180000030FE000130FF0000308A110A126121A8
:100190008A110A12831203130615B4308312031353
:1001A000BA00EB30BB00DA2002308312031386065C
:1001B000CA280800831203130000BF30B9000000F2
:1001C000B90BDF28BA0BDD28BB0BE428080083122B
:1001D0000313AF007F08AE007E08AD007D08AC00C1
:1001E000831203132C08B0002D08B1002E08B200B2
:1001F0002F08B300FF30AC07FF30031CAD07FF3002
:10020000031CAE07FF30031CAF0730083104320473
:10021000330403192C29B001B101B201B30100303C
:10022000831203133302031D1F2900303202031D02
:100230001F2900303102031D1F290430300203182A
:10024000F028000083120313B00A0319B10A03193E
:10025000B20A0319B30A0F290800003A0319342916
:10026000803A03193B2900347E08840083137F18E9
:100270008317000808007F088A007E0882000800B3
:10028000003A03194829803A03195229FF01003422
:100290007E08840083137F1883170008FF00840AF8
:1002A000000808008A110A123B21FD00FE0FFF031F
:1002B000FF0A8A110A123B21FC007D08FF007C081E
:1002C000080083120313B6007F08B5007E08B8004B
:1002D0007D08B7003507B500360838080318380F11
:1002E000B607B701B70DB61BB703B81BB70300308D
:1002F000B71BFF30B8003508FD003608FE00370890
:10030000FF0038080800013400348B3401343C34D9
:08031000003401340034003414
:02400E00FF3F72
:00000001FF
