:020000040000FA
:1000000000008A110A122B28F200030E8301F1006E
:100010000A088A01F000040883120313AD0083125A
:1000200003130B1D16280B110230860683120313CF
:100030008B1C1D288B1004308606831203132D0899
:1000400083120313840070088A008301710E8300F9
:10005000F20E720E09002830FE000130FF008030E1
:100060008A110A12DA208A110A1283120313A100DC
:100070007F08A0002A30A2000130A30083120313DE
:100080002008A4002108A500FF30A007031CA1033D
:10009000240825040319C32804302207A400A5015D
:1000A000A50D2308A5072408FE002508FF008030C1
:1000B0008A110A12DA208A110A1283120313A70086
:1000C0007F08A6002208FE002308FF0080308A1166
:1000D0000A12DA208A110A1283120313A900A5005A
:1000E0007F08A800A40002302207A400A501A50DE6
:1000F0002308A5072408FE002508FF0080308A1188
:100100000A12DA208A110A1283120313A500AB0027
:100110007F08A400AA00831203132608AA00270858
:10012000AB00FF30A607031CA7032A082B04031902
:10013000BC282808FE002908FF0080308A110A1216
:10014000C7208A110A1283120313AA0024088312FB
:1001500003138400831383120313251883172A08BB
:1001600083120313800083120313A80A0319A90A38
:10017000A40A0319A50A8B28063083120313A207C9
:100180000318A30A3E288A110A12FB280800003A25
:100190000319CE28803A0319D52800347E0884003C
:1001A00083137F188317000808007F088A007E08E1
:1001B00082000800003A0319E228803A0319EC286B
:1001C000FF0100347E08840083137F188317000822
:1001D000FF00840A000808008A110A12D520FD00D9
:1001E000FE0FFF03FF0A8A110A12D520FC007D08CA
:1001F000FF007C080800831603138112811101118E
:1002000081100114831203138B018B178B160B16AD
:10021000831603130113831203138101831603133F
:100220000614060883120313AC00AC102C088316C6
:1002300003138600060883120313AC002C112C084C
:10024000831603138600831203130615262908005C
:1002500001340034303401342E340034013400349D
:02026000003468
:02400E00FB3F76
:00000001FF
