:04000000FCEF10F011
:10100000003C04429F6A429001424DBB40EC473E87
:101010008E1FBB3C04425A8B420444429C4F410009
:10102000803F4C6576656C65640052696768740042
:101030004C65667400007F0E0001651500016411A7
:1010400000016311D8A43DD07F0E0001621500019C
:10105000611100016011D8A410D0000E00018A6F48
:10106000210E0001896F000E0001606F000E00016B
:10107000616F000E0001626F1200000E076E000E1D
:10108000086E000E096E60C00AF061C00BF062C00D
:101090000CF0BDEC0FF0D8B00AD0100E0001606F5C
:1010A000C90E0001616F3F0E0001626F1200100E49
:1010B0000001606FC90E0001616FBF0E0001626F19
:1010C00012007F0E00016215000161110001601124
:1010D000D8A424D0000E076E000E086E000E096E14
:1010E00063C00AF064C00BF065C00CF0BDEC0FF0FB
:1010F000D8B00AD0000E0001606F000E0001616FD1
:10110000000E0001626F1200100E0001606F490EA8
:101110000001616F400E0001626F120063C004F0B5
:1011200064C005F065C006F005EC10F004C007F0DF
:1011300005C008F006C009F060C004F061C005F009
:1011400062C006F005EC10F004C00AF005C00BF018
:1011500006C00CF0BDEC0FF0D8A06ED060C040F01F
:1011600061C041F062C042F063C043F064C044F02B
:1011700065C045F079EC0DF040C069F041C06AF0FF
:1011800042C06BF069C04FF06AC050F06BC051F0C4
:1011900072EC0AF04FC06CF050C06DF051C06EF0B0
:1011A00000016551800A800F07E1000E0001645DB7
:1011B00003E1000E0001635DD8B037D00001625139
:1011C000800A800F07E1000E0001615D03E1000E5F
:1011D0000001605DD8A015D06CC01BF06DC01CF084
:1011E0006EC01DF0100E1E6E490E1F6E400E206E5A
:1011F0005AEC0BF01BC06CF01CC06DF01DC06EF003
:1012000014D06CC027F06DC028F06EC029F0100E0D
:101210002A6E490E2B6E400E2C6E84EC10F027C007
:101220006CF028C06DF029C06EF06CC060F06DC02D
:1012300061F06EC062F0120060C043F061C044F023
:1012400062C045F063C040F064C041F065C042F048
:1012500079EC0DF040C069F041C06AF042C06BF01B
:1012600069C04FF06AC050F06BC051F072EC0AF0E8
:101270004FC066F050C067F051C068F066C001F022
:1012800067C002F068C003F0B9EC10F001C06CF068
:1012900002C06DF003C06EF000016251800A800F41
:1012A00007E1000E0001615D03E1000E0001605DD9
:1012B000D8B015D06CC027F06DC028F06EC029F0F2
:1012C000100E2A6EC90E2B6E3F0E2C6E84EC10F0A1
:1012D00027C06CF028C06DF029C06EF014D06CC02F
:1012E0001BF06DC01CF06EC01DF0100E1E6EC90EFE
:1012F0001F6E3F0E206E5AEC0BF01BC06CF01CC032
:101300006DF01DC06EF06CC060F06DC061F06EC01D
:1013100062F01200000E0001866F000E0001856F62
:1013200085C083F086C084F0000E0001886F640ED3
:101330000001876F20EE83F010EE6FF0060EDECF17
:10134000E6FFE82EFCD7EAEC0DF06FC07DF070C030
:101350007EF071C07FF020EE83F010EE6FF0060E8D
:10136000DECFE6FFE82EFCD76FEC0FF06FC080F009
:1013700070C081F071C082F00F0EC16E000E7E6EE3
:10138000000E7F6E070E926E000E956E0A0E06EC32
:1013900011F00A0E06EC11F0280EC0EC0EF0010E52
:1013A00065EC10F07F0E0001821500018111000133
:1013B0008011D8A407D0100E046E220E036E9FEC8D
:1013C00010F01BD000018251800A800F07E1000E4F
:1013D0000001815D03E1000E0001805DD8B007D0FF
:1013E000100E046E2A0E036E9FEC10F006D0100E45
:1013F000046E300E036E9FEC10F00A0E06EC11F036
:101400000D0E65EC10F0C00E65EC10F0000E000142
:10141000846F460E0001836F000E0001866F000E80
:101420000001856F000E0001886F460E0001876F76
:1014300020EE83F010EE6FF0060EDECFE6FFE82E12
:10144000FCD7EAEC0DF06FC07DF070C07EF071C08B
:101450007FF020EE83F010EE6FF0060EDECFE6FF99
:10146000E82EFCD76FEC0FF06FC080F070C081F0F9
:1014700071C082F07F0E0001821500018111000110
:101480008011D8A407D0100E046E220E036E9FECBC
:1014900010F01BD000018251800A800F07E1000E7E
:1014A0000001815D03E1000E0001805DD8B007D02E
:1014B000100E046E2A0E036E9FEC10F006D0100E74
:1014C000046E300E036E9FEC10F0F40EF1EC10F091
:1014D0000E0E65EC10F0640EF1EC10F00C0E65ECE5
:1014E00010F0FFD74FC004F050C005F051C006F017
:1014F00005EC10F004C05CF005C05DF006C05EF0C5
:101500007F0E5E145D105C10D8A407D0000E4F6EE5
:10151000000E506E000E516E1200000E076E800E0F
:10152000086E3F0E096E5CC00AF05DC00BF05EC035
:101530000CF0BDEC0FF0D8B002D0010E01D0000EBF
:10154000586E5850D8B414D0000E406E800E416EC4
:101550003F0E426E5CC043F05DC044F05EC045F09B
:1015600079EC0DF040C05CF041C05DF042C05EF02F
:101570005CC00CF05DC00DF05EC00EF05CC00FF002
:101580005DC010F05EC011F001EC0DF00CC059F020
:101590000DC05AF00EC05BF059C027F05AC028F0B9
:1015A0005BC029F0100E2B6E130E2A6E000E2D6EEE
:1015B000040E2C6E57EC0EF027C052F028C053F0EA
:1015C00029C054F059C027F05AC028F05BC029F058
:1015D000100E2B6E010E2A6E000E2D6E050E2C6E57
:1015E00057EC0EF027C055F028C056F029C057F030
:1015F0005CC00CF05DC00DF05EC00EF052C043F058
:1016000053C044F054C045F055C040F056C041F0BE
:1016100057C042F079EC0DF040C00FF041C010F01F
:1016200042C011F001EC0DF00CC05CF00DC05DF09B
:101630000EC05EF05850D8B41CD05CC001F05DC044
:1016400002F05EC003F0B9EC10F001C01BF002C064
:101650001CF003C01DF0100E1E6EC90E1F6E3F0E53
:10166000206E5AEC0BF01BC05CF01CC05DF01DC07E
:101670005EF05150800A800F05E1000E505C02E1DF
:10168000000E4F5CD8A007D05CC04FF05DC050F09A
:101690005EC051F012005CC001F05DC002F05EC09F
:1016A00003F0B9EC10F001C04FF002C050F003C0DD
:1016B00051F012001DC021F0226A236A1C34213629
:1016C00001E322802150266E20C021F0226A236A85
:1016D0001F34213601E322802150256E2650D8B4D4
:1016E0000CD02550265CD8B00FD0265000082524F9
:1016F000216E190E215CD8A007D01EC01BF01FC0A0
:101700001CF020C01DF012002550D8B40CD026507B
:10171000255CD8B00FD0255000082624216E190E64
:10172000215CD8A007D01BC01BF01CC01CF01DC042
:101730001DF01200060E246E1DBE248E20BE248CC9
:101740001C8EFF0E1B16FF0E1C16000E1D161F8E84
:10175000FF0E1E16FF0E1F16000E20162550265CCB
:10176000D8B01AD0D8901E361F3620362506255000
:101770002618D8B40DD0240624C021F0070E211657
:10178000D8B406D0EFD7D8901D321C321B32262A8F
:1017900025502662F8D71DD02650255CD8B019D028
:1017A000D8901B361C361D36260625502618D8B470
:1017B0000DD0240624C021F0070E2116D8B406D07F
:1017C000EFD7D89020321F321E32252A25502662AC
:1017D000F8D724AE0CD0FF0E1B1AFF0E1C1AFF0EFA
:1017E0001D1A010E1B26000E1C22000E1D2224AC09
:1017F0000CD0FF0E1E1AFF0E1F1AFF0E201A010E2C
:101800001E26000E1F22000E2022000E246E1B50EA
:101810001E261C501F221D50202220AE0ED0FF0E6F
:101820001E1AFF0E1F1AFF0E201A010E1E26000E92
:101830001F22000E2022010E246E1EC001F01FC0C8
:1018400002F020C003F026C004F024C005F01BEC19
:101850000FF001C01BF002C01CF003C01DF012000D
:10186000000E076E000E086E000E096E2DC00AF005
:101870002EC00BF02FC00CF0BDEC0FF0D8A018D08C
:101880002F50800A800F05E1000E2E5C02E1000E51
:101890002D5CD8B006D0000E00018A6F210E000129
:1018A000896F000E2D6E000E2E6E000E2F6E120030
:1018B0002DC036F02EC037F02FC038F02DC030F0DC
:1018C0002EC031F02FC032F0301E311E321E302AB1
:1018D000000E31223222C80E30243D6E6E0E3120B1
:1018E0003E6EBE0E32203F6ED8903F323E323D32C9
:1018F000000E365E800E375A000E385A040E396ECE
:101900003DC033F03EC034F03FC035F03DC00CF078
:101910003EC00DF03FC00EF036C00FF037C010F0E3
:1019200038C011F001EC0DF00CC03AF00DC03BF0E6
:101930000EC03CF03AC00CF03BC00DF03CC00EF0C5
:101940003DC00FF03EC010F03FC011F001EC0DF0B3
:101950000CC03AF00DC03BF00EC03CF03AC00CF0A9
:101960003BC00DF03CC00EF03DC00FF03EC010F08B
:101970003FC011F001EC0DF00CC03AF00DC03BF08F
:101980000EC03CF03DC00CF03EC00DF03FC00EF06C
:10199000000E0F6EC00E106E3F0E116E01EC0DF0BA
:1019A0000CC03DF00DC03EF00EC03FF03DC027F032
:1019B0003EC028F03FC029F03AC02AF03BC02BF0CF
:1019C0003CC02CF084EC10F027C03DF028C03EF065
:1019D00029C03FF0392E94D73DC00CF03EC00DF029
:1019E0003FC00EF02DC00FF02EC010F02FC011F030
:1019F00001EC0DF00CC02DF00DC02EF00EC02FF03C
:101A000012000EC012F0136A146A0D34123601E38C
:101A100013801250156E156607D0000E0C6E000E66
:101A20000D6E000E0E6E120011C012F0136A146AD1
:101A30001034123601E3138012501A6E1A6607D062
:101A4000000E0C6E000E0D6E000E0E6E12001A507F
:101A50007B0F15260EC01AF011501A1A800E1A1696
:101A60000D8E108EFF0E0F16FF0E1016000E1116A3
:101A7000000E166E000E176E000E186E070E196E11
:101A80000CA006D00F501626105017221150182205
:101A9000D8900E320D320C32D8900F3610361136E7
:101AA000192EEED7090E196E0CA006D00F5016266F
:101AB0001050172211501822D8900E320D320C32CD
:101AC000D890183217321632192EEED716C001F000
:101AD00017C002F018C003F015C004F01AC005F0DA
:101AE0001BEC0FF001C00CF002C00DF003C00EF0B3
:101AF000120042C046F0476A486A4134463601E364
:101B0000478046504D6E4D6607D0000E406E000E69
:101B1000416E000E426E120045C046F0476A486AA8
:101B20004434463601E3478046504E6E4E6607D039
:101B3000000E406E000E416E000E426E1200000E4E
:101B40004A6E000E4B6E000E4C6E4E50890F4D5E6D
:101B500042C04EF045504E1A800E4E16418EFF0E7A
:101B60004016FF0E4116000E4216448EFF0E43161D
:101B7000FF0E4416000E4516180E496ED8904A36D0
:101B80004B364C364350405C4450415845504258C7
:101B9000D8A007D04350405E4450415A4550425A65
:101BA0004A80D890403641364236492EE7D74AC05F
:101BB00001F04BC002F04CC003F04DC004F04EC029
:101BC00005F01BEC0FF001C040F002C041F003C073
:101BD00042F012006FC001F070C002F06FC003F05D
:101BE00070C004F0CCEC10F001C075F002C076F0CB
:101BF00073C001F074C002F073C003F074C004F04D
:101C0000CCEC10F0015000017525096E0250000166
:101C100076210A6EDFEC10F009C02DF00AC02EF01C
:101C20000BC02FF030EC0CF02DC077F02EC078F008
:101C30002FC079F077C063F078C064F079C065F0A8
:101C400071C009F072C00AF0DFEC10F009C060F05A
:101C50000AC061F00BC062F01BEC08F060C07AF0C3
:101C600061C07BF062C07CF0000E0F6E340E106E0F
:101C7000430E116E7AC00CF07BC00DF07CC00EF0EC
:101C800001EC0DF00CC040F00DC041F00EC042F070
:101C9000100E436E490E446E400E456E79EC0DF009
:101CA00040C06FF041C070F042C071F012002CC013
:101CB00001F02DC002F0000E046E030E036ECCEC9A
:101CC00010F02AC02EF02BC02FF001502E2602500B
:101CD0002F222EC0F6FF2FC0F7FF0900F5CF30F0FE
:101CE0000900F5CF31F00A00F5CF32F03ED030C018
:101CF0000FF031C010F032C011F027C00CF028C036
:101D00000DF029C00EF001EC0DF00CC01BF00DC061
:101D10001CF00EC01DF0000E046E030E036E2C06A8
:101D2000D8A02D062CC001F02DC002F0CCEC10F094
:101D30002AC02EF02BC02FF001502E2602502F2249
:101D40002EC0F6FF2FC0F7FF0900F5CF1EF00900E7
:101D5000F5CF1FF00A00F5CF20F05AEC0BF01BC0B6
:101D600030F01CC031F01DC032F02D502C10D8A422
:101D7000BED730C027F031C028F032C029F01200A1
:101D8000036E0F0E8316F00E95129690969296940F
:101D90008D908D928D9420EC11F00F0E95160F0EF4
:101DA0008316838A8D8424EC11F08D941CEC11F041
:101DB0000F0E8316838A8D8424EC11F08D941CEC15
:101DC00011F00F0E8316838A8D8424EC11F08D940C
:101DD000F00E951216EC11F00009D8A4FBD70350B1
:101DE00065EC10F016EC11F00009D8A4FBD7080E32
:101DF00065EC10F016EC11F00009D8A4FBD70F0E1B
:101E000065EC10F016EC11F00009D8A4FBD7010E18
:101E100065EC10F016EC11F00009D8A4FBD7040E05
:101E200065EC10F016EC11F00009D8A4FBD7000EF9
:101E300026EC10F012000450D8B405D00150021066
:101E40000310D8A40CD0000E016E000E026E000E1E
:101E5000036E1200042AD890033202320132000EBF
:101E60000114066E000E0214076EFE0E0314086EB7
:101E7000065007100810D8B40CD0ECD7042A010E75
:101E80000126000E0222000E0322D89003320232F5
:101E90000132000E0114066E000E0214076EFF0ED2
:101EA0000314086E065007100810D8B406D0E6D701
:101EB0000406D89001360236033602AEF9D704A0E4
:101EC000029ED8900432045003120550D8A4038E09
:101ED00001C001F002C002F003C003F0120073C0A1
:101EE00009F074C00AF0DFEC10F009C063F00AC01A
:101EF00064F00BC065F000016FC075F0000170C0A8
:101F000076F00001751F761F754B762B75C009F0B2
:101F100076C00AF0DFEC10F009C060F00AC061F092
:101F20000BC062F01BEC08F060C077F061C078F085
:101F300062C079F0000E0F6E340E106E430E116EFB
:101F400077C00CF078C00DF079C00EF001EC0DF008
:101F50000CC040F00DC041F00EC042F0100E436EB8
:101F6000490E446E400E456E79EC0DF040C06FF0A6
:101F700041C070F042C071F0120009AE16D007C027
:101F80000DF008C00EF009C00FF00D1E0E1E0F1E42
:101F90000D2A000E0E220F22000E0D24076E000ED9
:101FA0000E20086E800E0F20096E0CAE16D00AC0EF
:101FB0000DF00BC00EF00CC00FF00D1E0E1E0F1E0C
:101FC0000D2A000E0E220F22000E0D240A6E000EA6
:101FD0000E200B6E800E0F200C6E000E071A000EE6
:101FE000081A800E091A000E0A1A000E0B1A800E2B
:101FF0000C1A0A50075C0B5008580C500958D8B0FE
:1020000002D0D8901200D88012000650800A800FAB
:1020100005E1000E055C02E1000E045CD8B00FD0B3
:1020200004C001F005C002F006C003F0B9EC10F0E6
:1020300001C004F002C005F003C006F0120004C0A5
:1020400004F005C005F006C006F01200026E0F0E87
:1020500095160F0E831602508009F00B83128D9097
:102060008D9224EC11F08D8424EC11F08D940F0EE0
:1020700083160238F00BF00B831224EC11F08D84E0
:1020800024EC11F08D94F00E95121200026E0F0EDA
:1020900095160F0E83160250F00B83128D828D90D1
:1020A00024EC11F08D8424EC11F08D940F0E831626
:1020B0000238F00BF00B831224EC11F08D8424EC29
:1020C00011F08D94F00E95121200026E0F0E9516FF
:1020D0000F0E83160250F00B83128D908D9224EC1C
:1020E00011F08D8424EC11F08D940F0E83160238BC
:1020F000F00BF00B831224EC11F08D8424EC11F022
:102100008D94F00E95121200000E2A1A000E2B1A52
:10211000800E2C1A27C01BF028C01CF029C01DF00F
:102120002AC01EF02BC01FF02CC020F05AEC0BF080
:102130001BC027F01CC028F01DC029F012000FD0D2
:1021400016EC11F00009D8A4FBD703C0F6FF04C0B9
:10215000F7FF0800F55046EC10F0034A042A03C0CC
:10216000F6FF04C0F7FF0800F5500009D8B41200CC
:10217000E7D77F0E031402100110D8B406D0000E6A
:10218000011A000E021A800E031A01C001F002C0EB
:1021900002F003C003F0120001500302F3CF05F078
:1021A000F4CF06F001500402F35006260250030259
:1021B000F350062605C001F006C002F0120009C067
:1021C00001F00AC002F0036A8E0E046E000E056E66
:1021D0001BEC0FF001C009F002C00AF003C00BF0C5
:1021E0001200026E0D0E016EFC0EE82EFED7012EBF
:1021F000FCD7022EF7D7120000018A6B896B000E04
:10220000F86E100EF76E00018AEF09F0016EFA0EFB
:1022100000F0E82EFDD7012EFAD71200016E210E34
:10222000E82EFED700F0012EFAD7120024EC11F0B0
:1022300024EC11F0000E12000A0E06EC11F0120050
:102240001E0E06EC11F01200140E0EEC11F012002E
:020000040030CA
:0E000000FF02011EFF8981FF0FC00FE00F40BD
:00000001FF
