:040000008AEF7FF014
:10FEF600D80ED36E800E9B6E1200928092829284F0
:10FF0600929A9380939E939C7BEC7FF0120000EE76
:10FF160001F0160EEE6AE806FDE1000EF86E00012D
:10FF2600DEEF7FF017C0D9FF18C0DAFFDF501A6E78
:10FF360019C01BF0010E1C6E1B2A02D0D8901C366D
:10FF46001B2EFCD71C501A1017C0D9FF18C0DAFF99
:10FF5600DF6E120017C0D9FF18C0DAFFDF501A6E25
:10FF660019C01BF0010E1C6E1B2A02D0D8901C363D
:10FF76001B2EFCD71C501A1817C0D9FF18C0DAFF61
:10FF8600DF6E120017C0D9FF18C0DAFFDF501A6EF5
:10FF960019C01BF0010E1C6E1B2A02D0D8901C360D
:10FFA6001B2EFCD71C50FF0A1A1417C0D9FF18C005
:10FFB600DAFFDF6E120080EC7FF093940F0E186E5E
:10FFC6008A0E176E020E196EC5EC7FF01D681D06AF
:10FFD6001D04D8A4FCD71D060F0E186E8A0E176EC8
:10FFE600020E196E95EC7FF00F0E186E8A0E176EC4
:0AFFF600060E196EADEC7FF0EAD79D
:00000001FF
