:04000000C5EF7FF0D9
:10FF880012000001D4EF7FF0014A022A00D01200CB
:10FF9800FA0E00F0E82EFDD7012EFAD700D0120095
:10FFA8000F0EC16E000E7E6E000E7F6E000E936EF9
:10FFB8008A8E8A7C00D08A7E056EE80E016E055016
:10FFC800CCEC7FF08A7C8AAC02D08A8001D08A90FF
:10FFD800000E026E010E016E000E046E010E036E1D
:10FFE800C4EC7FF0000E026E020E016EC8EC7FF0CA
:08FFF800E2D7E1D700EF00F0B1
:020000040030CA
:0600010002011E008981CE
:060008000FC00FE00F40E5
:00000001FF
