:040000000CEF00F011
:10000800FACF17F0FBCF18F0E9CF19F062ED02F044
:1000180010EF03F020EE25F00750D9260850DA2219
:10002800DE06000EDE5ADE5ADD5A20EE25F00750B5
:10003800D9260850DA22DECF09F0DECF0AF0DECF6B
:100048000BF0DECF0CF00C5009100A100B10D8A4DE
:100058009BD020EE21F00750D9260850DA2210EE66
:1000680025F00750E1260850E222DECFE6FFDECF7A
:10007800E6FFDECFE6FFDDCFE5FFE552E552000EF5
:10008800136E000E126E1350800A800F030ED8B440
:10009800125CD8B013D112C001F013C002F0000EE8
:1000A800046E0B0E036EFDEC02F001500724D96EAE
:1000B80002500820DA6E12C001F013C002F0000EE0
:1000C800046E0B0E036EFDEC02F007C009F008C0C9
:1000D8000AF00150092602500A22040E0924E16E92
:1000E800000E0A20E26EDECFE6FFDECFE6FFDECFAF
:1000F800E6FFDDCFE5FFE552E55212C001F013C07F
:1001080002F0000E046E0B0E036EFDEC02F007C049
:1001180009F008C00AF00150092602500A220A0E06
:100128000924D96E000E0A20DA6EDF500B6E010E1C
:100138000C6E0B2A02D0D8900C360B2EFCD712C0AE
:1001480001F013C002F0000E046E0B0E036EFDECFE
:1001580002F007C00DF008C00EF001500D26025045
:100168000E22080E0D24D96E000E0E20DA6EDECF98
:100178000FF0DDCF10F00FC0D9FF10C0DAFF0C5020
:10018800DF12124A132A7FD7000E156E000E146E66
:100198001550800A800F030ED8B4145CD8B08ED0E6
:1001A80014C001F015C002F0000E046E0B0E036EB1
:1001B800FDEC02F007C009F008C00AF0015009265A
:1001C80002500A22040E0924D96E000E0A20DA6EA3
:1001D800DECF0BF0DECF0CF0DECF0DF0DECF0EF071
:1001E8000B040C100D100E10D8A448D014C001F048
:1001F80015C002F0000E046E0B0E036EFDEC02F04B
:1002080007C009F008C00AF00150092602500A2266
:100218000A0E0924D96E000E0A20DA6EDF500B6E22
:10022800010E0C6E0B2A02D0D8900C360B2EFCD780
:100238000C50FF0A0D6E14C001F015C002F0000E3C
:10024800046E0B0E036EFDEC02F007C00EF008C042
:100258000FF001500E2602500F22080E0E24D96E00
:10026800000E0F20DA6EDECF10F0DDCF11F010C0D7
:10027800D9FF11C0DAFF0D50DF161DD014C001F0F0
:1002880015C002F0000E046E0B0E036EFDEC02F0BA
:1002980007C009F008C00AF00150092602500A22D6
:1002A800040E0924D96E000E0A20DA6EDE06000E4E
:1002B800DE5ADE5ADD5A144A152A6AD7120020EE91
:1002C80021F02B50D9262C50DA2210EE25F02B5095
:1002D800E1262C50E222DECFE6FFDECFE6FFDECFBE
:1002E800E6FFDDCFE5FFE552E552000E366E000E63
:1002F800356E3650800A800F030ED8B4355CD8B0FE
:1003080079D035C025F036C026F0000E286E0B0EC9
:10031800276EEAEC02F025502B24D96E26502C20AB
:10032800DA6E35C025F036C026F0000E286E0B0EAA
:10033800276EEAEC02F02BC02DF02CC02EF02550D1
:100348002D2626502E22040E2D24E16E000E2E207E
:10035800E26EDECFE6FFDECFE6FFDECFE6FFDDCFE3
:10036800E5FFE552E55235C025F036C026F0000E0F
:10037800286E0B0E276EEAEC02F02BC02DF02CC075
:100388002EF025502D2626502E220A0E2D24D96E09
:10039800000E2E20DA6EDF502F6E010E306E2F2ADF
:1003A80002D0D89030362F2EFCD735C025F036C075
:1003B80026F0000E286E0B0E276EEAEC02F02BC01A
:1003C80031F02CC032F02550312626503222080E4A
:1003D8003124D96E000E3220DA6EDECF33F0DDCF55
:1003E80034F033C0D9FF34C0DAFF3050DF12354A59
:1003F800362A7FD71200D59AD596D584D582D5804E
:10040800000EF26EF28EF28A000ED76E000ED66ED5
:10041800500E586E000E596E000E5A6E000E5B6E2E
:10042800000E266E370E256E280E276E000E286EDB
:10043800000E296E000E2A6E0F0E2C6E810E2B6E8A
:10044800000E2E6E000E2D6EAEEC02F09390000E94
:10045800266E420E256E3C0E276E000E286E000E8C
:10046800296E000E2A6E0F0E2C6E810E2B6E000E5A
:100478002E6E010E2D6EAEEC02F09392000E266EDB
:100488004D0E256E280E276E000E286E000E296E62
:10049800000E2A6E0F0E2C6E810E2B6E000E2E6E25
:1004A800020E2D6EAEEC02F09394000E2C6E370EF9
:1004B8002B6E63EC01F09396818612000600EACF5A
:1004C8001AF0E1CF1BF0E2CF1CF0D9CF1DF0DACF44
:1004D8001EF0F3CF1FF0F4CF20F0F6CF21F0F7CFC6
:1004E80022F0F8CF23F0F5CF24F0F2BAF2A415D019
:1004F80081B602D0010E01D0000E166E16461646C1
:10050800164681501618F70B1618816EF294000ED5
:10051800086E370E076E0EEC00F024C0F5FF23C0FE
:10052800F8FF22C0F7FF21C0F6FF20C0F4FF1FC06C
:10053800F3FF1EC0DAFF1DC0D9FF1CC0E2FF1BC0BD
:10054800E1FF1AC0EAFF19C0E9FF18C0FBFF17C096
:10055800FAFF110025C0D9FF26C0DAFF27C0DEFF49
:1005680028C0DEFF29C0DEFF2AC0DEFF20EE08F02B
:100578002550D9262650DA222BC0DEFF2CC0DDFFFD
:1005880020EE0AF02550D9262650DA222DC0DFFFAA
:100598001200FFEC01F080A080B202D080A4FBD74B
:1005A80080A00CD00A0E3B26000E3C223D223E22A3
:1005B8000A0E465E000E475A485A495A80A2EBD79F
:1005C80080A4E9D780A080B2FDD7FAD725502702AA
:1005D800F3CF29F0F4CF2AF025502802F3502A2629
:1005E80026502702F3502A2629C025F02AC026F0D3
:1005F800120001500302F3CF05F0F4CF06F00150CA
:100608000402F350062602500302F350062605C0E2
:1006180001F006C002F0120000EE37F0290EEE6A73
:0A062800E806FDE10001CDEF02F04D
:020000040030CA
:08000000FF08191EFF0381FF38
:00000001FF
